S01400002E2F44656275672F64656C61792E7331395E
S315200000000248854600F052F8FEE7C04600C00120AF
S3152000001080B500AF084B00221A60084B29221A60CF
S31520000020074B00221A60044B05221A60C046054B76
S315200000301B78C046BD4680BD10E000E014E000E01D
S3152000004018E000E012E000E080B582B000AF7860F2
S315200000507B68FA229100180000F044F803007B60C8
S315200000607B6801337B60C046BD4602B080BD80B54B
S3152000007082B000AF78607B68FA229100180000F009
S3152000008031F803007B607B6801337B60C046BD4648
S3152000009002B080BD80B500AF024B034A1A60C0464D
S315200000A0BD4680BD001002405555000080B582B087
S315200000B000AFFFF7EFFF0A4B7B6000233B607B68B6
S315200000C000221A70FA235B001800FFF7D0FF7B6826
S315200000D0FF221A70FA235B001800FFF7C8FFEEE72D
S315200000E014100240002243088B4274D303098B422A
S315200000F05FD3030A8B4244D3030B8B4228D3030CD2
S315200001008B420DD3FF22090212BA030C8B4202D373
S315200001101212090265D0030B8B4219D300E0090A9B
S31520000120C30B8B4201D3CB03C01A5241830B8B42A4
S3152000013001D38B03C01A5241430B8B4201D34B038D
S31520000140C01A5241030B8B4201D30B03C01A5241F2
S31520000150C30A8B4201D3CB02C01A5241830A8B4277
S3152000016001D38B02C01A5241430A8B4201D34B0260
S31520000170C01A5241030A8B4201D30B02C01A5241C4
S31520000180CDD2C3098B4201D3CB01C01A5241830978
S315200001908B4201D38B01C01A524143098B4201D3B2
S315200001A04B01C01A524103098B4201D30B01C01ADD
S315200001B05241C3088B4201D3CB00C01A5241830857
S315200001C08B4201D38B00C01A524143088B4201D384
S315200001D04B00C01A5241411A00D2014652411046E4
S315200001E07047FFE701B5002000F006F802BDC046C3
S311200001F00029F7D076E770477047C0461C
S70520000000DA
