S01400002E2F44656275672F64656C61792E7331395E
S315200000000248854600F060F8FEE7C04600C00120A1
S3152000001080B500AF084B00221A60084B29221A60CF
S31520000020074B00221A60044B05221A60C046054B76
S315200000301B78C046BD4680BD10E000E014E000E01D
S3152000004018E000E012E000E080B584B000AF7860F0
S315200000500023FB600AE0FFF7DBFFFFF7D9FFFFF77E
S31520000060D7FFFFF7D5FFFB680133FB60FA687B6893
S315200000709A42F0D9C046C046BD4604B080BD80B580
S3152000008084B000AF78600023FB6007E0FA239B0072
S315200000901800FFF7D9FFFB680133FB60FA687B681D
S315200000A09A42F3D3C046C046BD4604B080BD80B553
S315200000B000AF034B034A1A60C046BD4680BDC0460A
S315200000C0001002405555000080B582B000AFFFF702
S315200000D0EEFF084B7B6000233B607B6800221A7092
S315200000E00220FFF7CCFF7B68FF221A700220FFF761
S30D200000F0C6FFF2E714100240DE
S70520000000DA
