S01B00002E2F44656275672F6173636969646973706C61792E73313967
S315200000000248854600F098F9FEE7C04600C0012068
S3152000001080B500AF084B00221A60084B29221A60CF
S31520000020074B00221A60044B05221A60C046054B76
S315200000301B78C046BD4680BD10E000E014E000E01D
S3152000004018E000E012E000E080B582B000AF7860F2
S315200000507B68FA229100180000F086F903007B6085
S315200000607B6801337B60C046BD4602B080BD80B54B
S3152000007082B000AF78607B68FA229100180000F009
S3152000008073F903007B607B6801337B60C046BD4605
S3152000009002B080BD80B584B000AF0200FB1D1A708F
S315200000A0094A0F217B1812781A70FA1D7B181278CC
S315200000B01B781343DBB2044A04210B43DBB21370D3
S315200000C0C046BD4604B080BD1410024080B584B041
S315200000D000AF0200FB1D1A700D4A0F217B18127803
S315200000E01A70FB1D1B785BB2DB435BB27A18127861
S315200000F052B213405AB27B181A70054A7B181B78E5
S3152000010004210B43DBB21370C046BD4604B080BD4C
S315200001101410024080B582B000AF0200FB1D1A7099
S315200001200120FFF7D3FF0220FFF7D0FFFB1D1B782E
S31520000130180000F077F8C046BD4602B080BD80B5F5
S3152000014082B000AF0200FB1D1A700120FFF7A2FF4C
S315200001500220FFF7BBFFFB1D1B78180000F062F89A
S31520000160C046BD4602B080BD90B583B000AF0B4BF4
S315200001700B4A1A600120FFF78DFF0220FFF78AFF46
S31520000180FC1D00F067F803002370044B054A1A6033
S31520000190FB1D1B781800BD4603B090BD0010024021
S315200001A0555500005555555590B583B000AF0B4BAE
S315200001B00B4A1A600220FFF76DFF0120FFF786FF2A
S315200001C0FC1D00F047F803002370044B054A1A6013
S315200001D0FB1D1B781800BD4603B090BD00100240E1
S315200001E0555500005555555580B582B000AF0200D3
S315200001F0FB1D1A70C046FFF7D7FF03001A008023A5
S315200002001340802BF7D00820FFF71EFFFB1D1B781D
S315200002101800FFF77FFF0220FFF729FFC046BD46E3
S3152000022002B080BD80B582B000AF0200FB1D1A70FF
S315200002304020FFF72FFF064AFB1D1B781370402036
S31520000240FFF744FFFFF7E4FEC046BD4602B080BD7F
S315200002501510024080B582B000AF4020FFF71AFF8C
S31520000260FFF7D6FEFFF7D4FE064AFB1D12781A705A
S315200002704020FFF72BFFFB1D1B781800BD4602B060
S3152000028080BDC0461110024080B500AF3820FFF770
S31520000290ABFF0F20FFF7A8FF0120FFF7A5FF0220E5
S315200002A0FFF7A2FFC046BD4680BD80B582B000AF35
S315200002B00200FB1D1A70C046FFF776FF03001A00E6
S315200002C080231340802BF7D00820FFF7BDFEFB1DAF
S315200002D01B781800FFF733FF2B20FFF7B5FEC0462B
S315200002E0BD4602B080BD80B584B000AF786039606D
S315200002F03B68013BDBB29B01DAB27B68DBB2D318E9
S31520000300DAB20F217B18013A1A707B181B788022EB
S3152000031052421343DBB21800FFF766FFC046BD46C4
S3152000032004B080BD80B582B000AFFB1D00221A70DC
S31520000330C046BD4602B080BD80B500AFFFF7A4FF22
S315200003406620FFF7B2FF02210120FFF7CCFF6620CF
S31520000350FFF7ABFF01210220FFF7C5FF6720FFF75C
S31520000360A4FFC046BD4680BD002243088B4274D3FD
S3152000037003098B425FD3030A8B4244D3030B8B4280
S3152000038028D3030C8B420DD3FF22090212BA030C89
S315200003908B4202D31212090265D0030B8B4219D36A
S315200003A000E0090AC30B8B4201D3CB03C01A52418A
S315200003B0830B8B4201D38B03C01A5241430B8B42D2
S315200003C001D34B03C01A5241030B8B4201D30B03BB
S315200003D0C01A5241C30A8B4201D3CB02C01A5241E2
S315200003E0830A8B4201D38B02C01A5241430A8B42A5
S315200003F001D34B02C01A5241030A8B4201D30B028E
S31520000400C01A5241CDD2C3098B4201D3CB01C01AA7
S31520000410524183098B4201D38B01C01A52414309B1
S315200004208B4201D34B01C01A524103098B4201D39F
S315200004300B01C01A5241C3088B4201D3CB00C01A0C
S31520000440524183088B4201D38B00C01A5241430884
S315200004508B4201D34B00C01A5241411A00D20146A9
S31520000460524110467047FFE701B5002000F006F81C
S3152000047002BDC0460029F7D076E770477047C046D0
S70520000000DA
