S01700002E2F44656275672F62617369635F696F2E73313931
S315200000000248854600F0C0F8FEE7C04600C0012041
S3152000001080B500AF074B084A1A60084B00221A70B9
S31520000020074BAA221A80074B00221A70C046BD46EB
S3152000003080BDC046000C024055550055050C0240B7
S315200000400E0C0240150C024080B582B000AF0200B3
S31520000050FB1D1A70FB1D1B78024AD35C1800BD4697
S3152000006002B080BDC401002080B582B000AF02007E
S31520000070FB1D1A70FB1D1B78042B14D017DC032BD9
S315200000800DD014DC012B02D0022B04D00FE00C4B38
S3152000009010221A700FE00A4B20221A700BE0084B30
S315200000A040221A7007E0064B80221A7003E0044BA8
S315200000B000221A70C046C046BD4602B080BDC0466A
S315200000C0150C024080B582B000AF124AFB1D127893
S315200000D01A70FB1D1B780822134001D0042315E05B
S315200000E0FB1D1B780422134001D003230EE0FB1DC9
S315200000F01B780222134001D0022307E0FB1D1B7848
S315200001000122134001D0012300E000231800BD4640
S3152000011002B080BD110C024090B583B000AFFB1D2C
S31520000120FF221A70BB1D01221A7021E0BB1D1B780D
S315200001301800FFF799FF7C1DFFF7C4FF030023700B
S315200001407B1D1B78002B0ED00020FFF78DFFBB1DDB
S315200001501B78013B9A007B1D1B78013BD218FB1DA7
S3152000016008498A5C1A70BB1D1A78BB1D01321A70A9
S31520000170BB1D1B78042BD9D9FB1D1B781800BD4647
S3152000018003B090BDB401002090B583B000AFFFF757
S315200001903FFFFFF7C1FF0300FC1D1800FFF754FFC8
S315200001A003002370024AFB1D1B781370F1E7C0463B
S315200001B0140C02400102030A0405060B0708090C69
S315200001C00E000F0D3F065B4F666D7D077F67777CC0
S309200001D0395E797184
S70520000000DA
