S01700002E2F44656275672F62617369635F696F2E73313931
S315200000000248854600F032F8FEE7C04600C00120CF
S3152000001080B500AF064BAA22D2051A60054B0F22E7
S315200000201A70054B55221A80C046BD4680BDC04673
S31520000030000C0240050C02400E0C0240B0B586B002
S3152000004000AF0200FB1D1A7008217B18064A31CA30
S3152000005031C312681A60FB1D1B787A18D35C18000E
S31520000060BD4606B0B0BDC0469000002080B582B027
S3152000007000AFFFF7CDFF044B40221A70034B1B88BD
S315200000809AB2FB1D1A70F6E7150C0240140C0240BA
S315200000903F065B4F666D7D077F67777C395E79719A
S70520000000DA
